:020000040800F2
:1000000028050020450100084D0100084F010008A7
:1000100051010008530100085501000800000000CC
:100020000000000000000000000000005701000870
:1000300059010008000000005B0100085D01000894
:100040005F0100085F0100085F0100085F01000810
:100050005F0100085F0100085D1800085F010008EB
:100060005F0100085F0100085F0100085F010008F0
:100070005F0100085F0100085F0100085F010008E0
:100080005F0100085F0100085F0100085F010008D0
:100090005F0100085F0100085F0100085F010008C0
:1000A0005F0100085F0100085F0100085F010008B0
:1000B0005F0100085F0100085F0100085F010008A0
:1000C0005F0100085F0100085F0100085F01000890
:1000D0005F0100085F0100085F010008E5180008E3
:1000E0005F0100085F0100085F0100085F01000870
:1000F0005F0100085F0100085F0100085F01000860
:100100005F0100085F0100085F0100085F0100084F
:100110005F0100085F0100085F0100085F0100083F
:100120005F0100085F0100085F0100085F0100082F
:10013000DFF80CD002F0AAFC00480047591600086E
:10014000280500200648804706480047FEE7FEE7EE
:10015000FEE7FEE7FEE7FEE7FEE7FEE7FEE7FEE777
:1001600045020008310100080CB500200190009004
:100170006B48006840F480306949086000BF6848F7
:10018000006800F4003000900198401C0190009835
:1001900018B90198B0F5A06FF1D16148006810F46A
:1001A000003F02D00120009001E000200090009864
:1001B000012842D15B48006840F0100059490860AE
:1001C0000846006820F0030008600846006840F018
:1001D000020008605248406851494860084640683B
:1001E00048600846406840F48060486008464068BF
:1001F00020F47C1048600846406840F4E8104860ED
:100200000846006840F08070086000BF44480068FD
:1002100010F0007FFAD04248406820F003004049C7
:1002200048600846406840F00200486000BF3C4813
:10023000406800F00C000828F9D10CBD10B5FFF79C
:1002400093FF10BD10B53648006840F001003449F6
:10025000086008464068344908403149486008460B
:100260000068324908402E4908600846006820F4BA
:10027000802008600846406820F4FE0048604FF483
:100280001F008860FFF7DAFF4FF000602849086020
:1002900010BD10B5002100200022214B5B6803F047
:1002A0000C0121B1042906D0082928D107E0214BEF
:1002B000214C236027E01F4B1F4C236023E0184B89
:1002C0005B6803F47010164B5B6803F48032022302
:1002D00003EB904022B9194B4343174C23600DE0C8
:1002E0000F4B5B6813F4003F04D0144B4343124C94
:1002F000236003E00F4B43430F4C236003E00D4B9F
:100300000D4C236000BF00BF054B5B68C3F30313B4
:100310000B4CE15C084B1B68CB40074C236010BDC5
:1003200000100240002002400000FFF8FFFFF6FE30
:1003300008ED00E000127A000000002000093D00F6
:100340000400002031490143314A1160704770B503
:10035000002100230F22C4780CB32D4C246804F430
:10036000E064C4F5E064210AC1F10403CA404478A2
:1003700004FA03F18478144021430901254C0678DE
:10038000A155047804F01F050124AC4005786D11D7
:100390004FF0E02606EB8505C5F8004109E004783A
:1003A00004F01F050124AC401B4D0678761145F87A
:1003B000264070BD194A0A400243154B1B1F1A60A4
:1003C000704739B1124A121D12680243104B1B1DAF
:1003D0001A6006E00E4A121D126882430C4B1B1D68
:1003E0001A607047042808D14FF0E021096941F0F4
:1003F00004014FF0E022116107E04FF0E0210969AC
:1004000021F004014FF0E022116170470000FA056D
:100410000CED00E000E400E080E100E080FFFF1F61
:10042000002044490860091D0860091D0860091D75
:10043000086041483F4914310860704700213D4938
:100440008279002A3AD00A46126803689A430B461A
:100450001A600A1D126803689A430B1D1A6002791C
:1004600011440A6803681A430A60324A0832126863
:1004700003689A432F4B08331A601A1D12680368E9
:100480009A432C4B0C331A604279102A0ED11A1F52
:10049000126803681A43274B08331A601A1D126842
:1004A00003681A43234B0C331A600DE0214942794B
:1004B00011440A6803681A430A6005E0027911448E
:1004C0000A6803689A430A6070470021016001715D
:1004D0000C21417100218171704716491031096862
:1004E0000143144A10321160704701460020114A3E
:1004F000143212680A4201D0012000E00020704747
:100500000C49143108607047014600200022094B55
:100510001B6803EA0102074B14331B680B4202D02D
:100520000AB1012000E00020704702491431086040
:100530007047000000040140FFFF0F0030B943F294
:10054000DB014FF0204242F8201005E043F2D201D7
:100550004FF0204242F820106FF07042411C4FF0E3
:10056000204343F8212011461A4602EB8002C2F8CC
:100570000411704710280AD118214FF0204211664B
:10058000402151664FF0FC319166D16610E0182190
:10059000F84A11604FF040014FF02042C2F8841039
:1005A0004FF0FC31F44A11604FF02042C2F88C1039
:1005B00070471820F14908604FF000004FF02041CB
:1005C000C1F8A4004FF0FC30ED49086001F10401CE
:1005D000086001F1040108607047D0E9011211437D
:1005E000C268114302691143426911438269114390
:1005F000C2691143026A1143426A1143826A11437C
:10060000C26A1143026B11434FF02043026843F862
:1006100022108168082908D11A46016852F8211071
:1006200041F04001026843F82210416B0968426BB7
:10063000526841EA0211426B926841EA0221426B20
:10064000928941EA0241426B128A41EA0251426BAD
:10065000127D41EA0261426B926911430268521CA9
:100660004FF0204343F82210C16AB1F5804F1AD1F0
:10067000816B0968826B526841EA0211826B926851
:1006800041EA0221826B128A41EA0251826B127D99
:1006900041EA0261826B92691143026803EB8202B4
:1006A000C2F8041108E06FF070414FF02043026877
:1006B00003EB8202C2F80411704730B5002100221A
:1006C0000023446844F0080485682C43C5682C4323
:1006D00005692C43456944EA4524856944EA453166
:1006E000C4692468C5696D6844EA0524C5692D8913
:1006F00044EA0544C5692D7B44EA0562046A24681E
:10070000056A6D6844EA0524056A2D8944EA0544B2
:10071000056A2D7B44EA05630468102C05D14FF06F
:1007200020442166A266E36607E0924C21604FF008
:100730002044C4F88820934C236030BD016841F008
:100740001001426841EA4221826841EA42318B4A03
:100750001160C1680968C268526841EA0221C26832
:10076000128941EA0241C268127B41EA0261844A6D
:100770001160016909680269526841EA022102694F
:10078000128941EA02410269127B41EA02617E4A12
:100790001160416909684269526841EA022142696F
:1007A000128941EA02414269127B41EA02614FF03B
:1007B0002042C2F8B0107047002101600221416060
:1007C00000218160C160016141618161C16101629B
:1007D0004FF480514162490081620021C16201638E
:1007E0000F21426B1160426B5160FF21426B91609F
:1007F0000F21426BD160426B1161426B516100214C
:10080000426B91610F21826B1160826B5160FF21FD
:10081000826B91600F21826BD160826B1161826B60
:1008200051610021826B91617047102101600021AC
:1008300041608160C160016141618161FC21C269E7
:100840001160C2695160C2699160C269D160026A77
:100850001160026A5160026A9160026AD160704759
:100860000021016041608160FC21C2681160C268A2
:100870005160C2689160C268D1600269116002690A
:100880005160026991600269D160426911604269F8
:100890005160426991604269D160704751B14FF037
:1008A000204252F8202042F001024FF0204343F84A
:1008B000202009E04FF0204252F82020334B1A400C
:1008C0004FF0204343F82020704799B1102808D1F9
:1008D0004FF02042126E42F004024FF020431A669D
:1008E0001DE0244A126842F004024FF02043C3F88E
:1008F000802014E0102809D14FF02042126E234BC3
:10090000DB1E1A404FF020431A6608E0194A1268AD
:100910001F4B02EA03024FF02043C3F880207047C8
:1009200040B11649096841F004014FF02042C2F875
:10093000A01008E011490968154A01EA02014FF0C8
:100940002042C2F8A010704799B1102808D14FF08A
:100950002042126E42F040024FF020431A662DE012
:10096000044A126842F040024FF02043C3F880204E
:1009700024E00FE0800000A0880000A0A00000A0FC
:10098000A80000A08C0000A0AC0000A0FEFF0F009B
:10099000FBFF0F00102808D14FF02042126E684B69
:1009A0001A404FF020431A6608E0664A1268644B0A
:1009B00002EA03024FF02043C3F88020704701464B
:1009C0000020102903D14FF02042506F01E05E4A11
:1009D0001068704710B5F2B1102807D14FF02043CE
:1009E0005B6E0B434FF02044636632E0B0F5807FCE
:1009F00008D1564B1B6843EA01034FF02044C4F86A
:100A0000843026E0524B1B6843EA01034FF0204438
:100A1000C4F8A4301DE0102807D14FF020435B6ECE
:100A20008B434FF02044636613E0B0F5807F08D11C
:100A3000464B1B6823EA01034FF02044C4F884307E
:100A400007E0434B1B6823EA01034FF02044C4F83E
:100A5000A43010BD10B5024600200023102A03D197
:100A60004FF02044636E07E0B2F5807F02D1374C2F
:100A7000236801E0364C23680B4201D0012000E0DE
:100A8000002010BD102807D14FF02042526E8A433B
:100A90004FF020435A6613E0B0F5807F08D12B4A0F
:100AA000126822EA01024FF02043C3F8842007E0D5
:100AB000274A126822EA01024FF02043C3F8A4201B
:100AC000704770B502460020002300240025102A3C
:100AD00003D14FF02046736E07E0B2F5807F02D15C
:100AE0001A4E336801E01A4E336803EA010403EA40
:100AF000D10514B10DB1012000E0002070BD102817
:100B000008D14FF02042526E22EAD1024FF020432A
:100B10005A6613E0B0F5807F08D10C4A126822EAC9
:100B2000D1024FF02043C3F8842007E0084A12683E
:100B300022EAD1024FF02043C3F8A42070470000FE
:100B4000BFFF0F00800000A0940000A0840000A060
:100B5000A40000A010B50446CA48844208D101216F
:100B6000042000F027FB0021042000F023FB46E0D6
:100B7000C548844208D10121082000F01BFB002158
:100B8000082000F017FB3AE0C048844208D1012158
:100B9000102000F00FFB0021102000F00BFB2EE0D6
:100BA000BB48844208D10121202000F003FB002132
:100BB000202000F0FFFA22E0B648844208D101214B
:100BC000402000F0F7FA0021402000F0F3FA16E090
:100BD000B148844208D10121802000F0EBFA0021C5
:100BE000802000F0E7FA0AE0AC48844207D10121F6
:100BF000801500F0DFFA0021A01500F0DBFA10BD2F
:100C000010B50121084600F0D5FA0021012000F0BE
:100C1000D1FA10BD2DE9F041024600250026002042
:100C200000230024002791F803C00CF00F0591F871
:100C300003C01CF0100F03D091F802C04CEA050568
:100C400091F800C0BCF1000F31D0146800202BE0F7
:100C50004FF0010C0CFA00F3B1F800C00CEA0306E7
:100C60009E4220D183004FF00F0C0CFA03F7BC43D7
:100C700005FA03FC4CEA040491F803C0BCF1280F08
:100C800006D14FF0010C0CFA00FCC2F814C00AE0C7
:100C900091F803C0BCF1480F05D14FF0010C0CFADC
:100CA00000FCC2F810C0401C0828D1D31460B1F871
:100CB00000C0BCF1FF0F34DD546800202EE000F1CD
:100CC000080C4FF0010808FA0CF3B1F800C00CEA68
:100CD00003069E4221D183004FF00F0C0CFA03F75C
:100CE000BC4305FA03FC4CEA040491F803C0BCF1D0
:100CF000280F05D100F1080C08FA0CF8C2F814808E
:100D000091F803C0BCF1480F07D100F1080C4FF077
:100D1000010808FA0CF8C2F81080401C0828CED34D
:100D20005460BDE8F0814FF6FF71018002218170AF
:100D30000421C17070470246002093680B4201D025
:100D4000012000E0002070470146886880B27047AB
:100D500002460020D3680B4201D0012000E00020B1
:100D600070470146C86880B27047016170474161B1
:100D700070470AB1016100E041617047C16070478E
:100D80004FF480320A4382618161826182698269A3
:100D9000704702460020424B18684FF68073184097
:100DA00040EA021008433E4B186070473D49C86155
:100DB0007047F0B50A46002300240021002500F00A
:100DC0000046B6F1004F02D1354EF16901E0344ED4
:100DD0007168C0F3034583B200F44016B6F5401FB6
:100DE00008D121F070612E4E766826F070662C4F87
:100DF0007E6012E000F48016B6F5801F06D103264F
:100E000006FA05F4A14341F0706106E0460D360193
:100E100003FA06F6B14341F0706122B1460D360186
:100E200003FA06F6314300F00046B6F1004F02D156
:100E30001B4EF16101E01A4E7160F0BD30B5002229
:100E40008B071C0F0F2303FA04F2154B08338C1089
:100E500053F824309343124C08348D1044F8253055
:100E600023468C1053F824308C07240F00FA04F426
:100E700023430B4C08348D1044F8253030BD0A490B
:100E80000860704700080140000C0140001001405C
:100E90000014014000180140001C014000200140E6
:100EA0000000014000002042DC002042DD480068D4
:100EB00040F00100DB49086008464068DA49084014
:100EC000D849486008460068D8490840D5490860B4
:100ED0000846006820F4802008600846406820F436
:100EE000FE0048604FF41F0088607047CD490968D4
:100EF00021F48031CB4A11601146096821F4802128
:100F00001160B0F5803F03D0B0F5802F0ED106E020
:100F1000C449096841F48031C24A116007E0C149FF
:100F2000096841F4A021BF4A116000E000BF00BF82
:100F3000704710B501460022002300204A11012A03
:100F400002D1B84C236806E0022A02D1B54C236ACC
:100F500001E0B44C636A01F01F02012494401C427A
:100F600001D0012000E0002010BD38B50020009025
:100F70000024002500BF3120FFF7DBFF0546009865
:100F8000401C00900098B0F5A06F01D0002DF2D069
:100F90003120FFF7CEFF08B1012400E000242046F5
:100FA00038BD014600209F4A106820F0F80040EA52
:100FB000C100106070479E490860704702460020DB
:100FC000984B586820F47C1042EA01031843954B73
:100FD0005860704796490866704701460020914A5C
:100FE000506820F003000843506070478D48406807
:100FF00000F00C007047014600208A4A506820F03B
:10100000F00008435060704701460020854A506850
:1010100020F4E06008435060704701460020814A98
:10102000506820F4605040EAC1005060704729B118
:101030007C4A527A02437B4B5A7204E0794A527AD4
:101040008243784B5A7270477A490860704701466C
:101050000020744A506820F44040084350607047B4
:101060000021754A11706F4A82F82010012802D0C1
:10107000042808D103E001216F4A117004E0052122
:101080006D4A117000E000BF00BF70476B490860F7
:1010900070476449096A0143624A116270476749AF
:1010A00044390860704730B5002100220024002335
:1010B0005C4D6D6805F00C0121B1042905D00829AB
:1010C00023D105E05E4D056022E05D4D05601FE027
:1010D000544D6D6805F47012524D6D6805F48034FE
:1010E000022505EB92421CB9564D554305600BE0B5
:1010F0004C4D6D6815F4003F03D0524D55430560CB
:1011000002E04F4D5543056002E04D4D056000BFC4
:1011100000BF444D6D6805F0F00109094A4D6B5C54
:101120000568DD4045603F4D6D6805F4E061090AE2
:10113000454D6B5C4568DD4085603A4D6D6805F452
:101140006051C90A404D6B5C4568DD40C560354D56
:101150006D6805F44041890B3C4D6B5CC568B5FB7F
:10116000F3F5056130BD29B12E4A526902432D4B7A
:101170005A6104E02B4A526982432A4B5A617047F4
:1011800029B1284A92690243264B9A6104E0254A14
:1011900092698243234B9A61704729B1214AD269EF
:1011A0000243204BDA6104E01E4AD26982431D4BA0
:1011B000DA61704729B11B4AD2680243194BDA60E1
:1011C00004E0184AD2688243164BDA60704729B1AE
:1011D000144A12690243134B1A6104E0114A12695E
:1011E0008243104B1A6170471449403908607047B8
:1011F0000F49C86470470B49C87170470948406A75
:1012000040F0807007494862704701460020054A57
:1012100092680A4201D0012000E000207047014995
:1012200088727047001002400000FFF8FFFFF6FED2
:1012300000004242D8004242201002408004424254
:1012400000127A0000093D00140000202400002054
:1012500010B50446FB48844209D101218803FFF7F9
:10126000A9FF00214FF48040FFF7A4FF32E0F648C9
:10127000844209D101214804FFF7A9FF00214FF45E
:101280000030FFF7A4FF25E0F048844209D1012196
:101290008804FFF79CFF00214FF48020FFF797FFA1
:1012A00018E0EB48844209D10121C804FFF78FFF01
:1012B00000214FF40020FFF78AFF0BE0E54884424D
:1012C00008D101210805FFF782FF00214FF48010AB
:1012D000FFF77DFF10BD2DE9F04786B005460E46AD
:1012E0000024A24600BFA1460027B08900B100BF7C
:1012F0002F462C8A4CF6FF700440F08804432C8261
:10130000AC894EF6F3100440B088318908437189E6
:1013100008430443AC81AC8A4FF6FF400440B089D7
:101320000443AC8201A8FFF7BEFEC648874202D143
:10133000DDF810A001E0DDF80CA0A88910F4004F42
:1013400008D00AEBCA0000EB0A1031684900B0FB74
:10135000F1F807E00AEBCA0000EB0A1031688900D7
:10136000B0FBF1F86420B8FBF0F00401200964211F
:1013700001FB1089A88910F4004F08D0322000EB3F
:10138000C900B0FBF1F000F00700044308E0322090
:1013900000EB09106421B0FBF1F000F00F000443F2
:1013A0002C8106B0BDE8F0874FF416510160002192
:1013B0008180C18001810C214181002181817047A0
:1013C00010B502460020108A4FF2FF0318400B8828
:1013D0004C8823438C882343CC88234318431082B2
:1013E00010BD0021018041808180C180704721B102
:1013F000828942F40052828104E082894DF6FF73B3
:101400001A4082817047F0B503460024002600256B
:101410000020A1F510676A3F00D100BF1846C1F354
:10142000421401F01F06012707FA06F5012C01D12D
:101430000C3004E0022C01D1103000E014301AB15D
:1014400007682F43076002E00768AF430760F0BDFD
:101450001AB1838A0B43838202E0838A8B4383829F
:101460007047028A4FF6F0731A400282028A0A43DA
:101470000282704782894FF2FF731A40828182890B
:101480000A438281704721B1828942F0020282813F
:1014900004E082894FF6FD731A4082817047028A08
:1014A0004FF6DF731A400282028A0A4302827047B3
:1014B00021B1028A42F48042028204E0028A4BF6A1
:1014C000FF731A4002827047C1F30802828070479E
:1014D00001468888C0F308007047818941F0010106
:1014E00081817047028BD2B20283028B42EA0122D1
:1014F00002837047028B02F47F420283028B0A430D
:101500000283704721B1828A42F02002828204E085
:10151000828A4FF6DF731A408282704721B1828A35
:1015200042F01002828204E0828A4FF6EF731A4082
:101530008282704721B1828A42F00802828204E0EE
:10154000828A4FF6F7731A408282704721B18289EE
:1015500042F40042828103E08289C2F30E0282815A
:10156000704721B1828A42F40062828204E0828A5A
:101570004FF2FF731A4082827047828A4FF6FB73E4
:101580001A408282828A0A438282704721B1828A0B
:1015900042F00202828204E0828A4FF6FD731A4012
:1015A0008282704702460020B1F5007F00D100BF63
:1015B00013880B4201D0012000E00020704701F4A5
:1015C0000072B2F5007F00D100BFCA4302807047AD
:1015D00070B502460024002300250020A1F5106606
:1015E0006A3E00D100BFC1F3421501F01F0301267E
:1015F00006FA03F3012D02D19689334006E0022D4D
:1016000002D1168A334001E0968A33400C1201263B
:1016100006FA04F41688344013B10CB1012000E03E
:10162000002070BD10B500220023A1F510646A3CB3
:1016300000D100BF0A1201249440A3B2DC4304800D
:1016400010BD000000380140004400400048004048
:10165000004C00400050004008B501F00FFA00F0C7
:10166000FFFB00F055FC00BF00F09EFC0128FBD101
:1016700000F092FC002076490870E8E07448007899
:101680000228FAD10020724908707249724801F0AC
:10169000C4F80028F1D04FF478406E4B00909B883E
:1016A0006C4CE468A3EB540399B26A4B1B88694CF9
:1016B000A468A3EB540398B2664B1B899AB201232A
:1016C00000F096FB4FF47840624A00909288614C9B
:1016D000E468A2EB540291B25E4A12885D4CA468A1
:1016E000A2EB540290B25B4A928993B2012200F0BD
:1016F0007FFB4FF47840574B00909B88554CE46833
:1017000003EB540399B2534B1B88524CA468A3EBD0
:10171000540398B24F4B1B899AB2012300F068FB27
:101720004FF478404B4A009092884A4CE468A2EB10
:10173000540291B2474A1288464CA46802EB540204
:1017400090B2444A928993B2012200F051FB4FF4C7
:101750007840404A00909288921E91B23D4A128889
:10176000921E90B204231A4600F042FB39493A48CF
:1017700001F0C2F800286AD043F23330354B0090B4
:101780009B88344CE468A3EB540399B2314B1B881B
:10179000304CA468A3EB540398B22E4B1B899AB229
:1017A000012300F025FB43F233302A4A009092884F
:1017B000284CE468A2EB540291B2264A1288254CC8
:1017C000A468A2EB540290B2224A928993B20122F9
:1017D00000F00EFB43F233301E4B00909B881D4CF3
:1017E000E46803EB540399B21A4B1B88194CA468A4
:1017F000A3EB540398B2174B1B899AB2012300F054
:10180000F7FA43F23330134A00909288114CE4689F
:10181000A2EB540291B20F4A12880E4CA46802EB5C
:10182000540290B20B4A928993B2012200F0E0FA7E
:1018300046F26660074A00909288921E91B2054A6D
:101840001288921E90B204231A4600F0D1FA15E7CE
:10185000DB000020140100202800002010B501202A
:10186000FEF752FE00283CD02248007880B92020A4
:101870002149086008202149086001201D4908709D
:1018800008201E49086020201B49091F086025E028
:1018900018480078012821D108201849091D08603E
:1018A00002201449087000BF042015490860202058
:1018B00014494861086104201149091F086020206B
:1018C00010494861086100BF00F09EFB0A480838D3
:1018D000006880F001000849083908600120FEF71F
:1018E00024FE10BD10B540F225510748FFF770FEE9
:1018F00010BD0000DB000020140C0140101401405A
:1019000014080140001001400048004001B502E009
:101910000098401E009000980028F9D108BD08B535
:1019200001210802FFF71FFC01214FF4F470FFF7BB
:1019300027FC10208DF8030003208DF80200022000
:10194000ADF800006946F948FFF764F94FF400600C
:10195000ADF800006946F648FFF75CF903208DF802
:10196000020018208DF803004CF20370ADF800005F
:101970006946F048FFF74EF94FF68070ADF8000069
:101980006946ED48FFF746F91020ADF800006946BA
:10199000E848FFF73FF92020ADF800006946E54828
:1019A000FFF738F94FF48050ADF800006946E04881
:1019B000FFF730F90420ADF800006946DE48FFF774
:1019C00029F90221D948FFF7D2F908BD00B597B02F
:1019D0000220019000200290052003900020049036
:1019E000059006904FF08050079006200890002048
:1019F000099008200A9010200B9000200C900D9068
:101A00000E900F9010904FF4805011900020129083
:101A10001390149001A81590169008A8FEF7DDFD0C
:101A200001210620FEF73AFF17B000BD10B54FF4B4
:101A30000061BF48FFF79BF9C048FFF767FF4FF40D
:101A40000061BB48FFF791F9BC48FFF75FFF10BD8D
:101A500000B5CF204FF0D841088000204FF0DA4188
:101A600008808120088030200880ED204FF0D84188
:101A7000088064204FF0DA4108800320088012209B
:101A8000088081200880E8204FF0D8410880852018
:101A90004FF0DA4108801020088078200880CB20A1
:101AA0004FF0D841088039204FF0DA4108802C20CF
:101AB0000880002008803420088002200880F72059
:101AC0004FF0D841088020204FF0DA410880EA200A
:101AD0004FF0D841088000204FF0DA41088008809C
:101AE000B1204FF0D841088000204FF0DA41088043
:101AF0001B200880B620410608800A204FF0DA41FA
:101B00000880A2200880C0204FF0D84108803520EE
:101B10004FF0DA410880C1204FF0D84108801120F1
:101B20004FF0DA410880C5204FF0D84108804520A9
:101B30004FF0DA4108800880C7204FF0D841088074
:101B4000A2204FF0DA410880F2204FF0D8410880FF
:101B500000204FF0DA41088026204FF0D84108805D
:101B600001204FF0DA410880E0204FF0D841088092
:101B70000F204FF0DA4108802620088024200880BA
:101B80000B2008800E20088009200880542008803F
:101B9000A8200880462008800C2008801720088094
:101BA000092008800F200880072008800020088076
:101BB000E1204FF0D841088000204FF0DA41088042
:101BC000192008801B20088004200880102008802D
:101BD000072008802A2008804720088039200880B4
:101BE00003200880062008800880302008803820E4
:101BF00008800F20088036204106088068204FF0BA
:101C0000DA4108802A204FF0D841088000204FF0A8
:101C1000DA4108800880012008803F2008802B20BE
:101C20004FF0D841088000204FF0DA41088008804A
:101C30000880EF2008803A204FF0D84108805520D6
:101C40004FF0DA41088011204FF0D84108803B481E
:101C5000FFF75CFE29204FF0D841088000BD10B589
:101C60000021002200234FF0DA4001880188038818
:101C70000288C812C002941240EA441040EAE320ED
:101C800010BD2A224FF0D8431A8002124FF0DA43D7
:101C90001A80C2B21A8002121A80C2B21A802B2293
:101CA0004FF0D8431A800A124FF0DA431A80CAB2B2
:101CB0001A800A121A80CAB21A80704770B5044698
:101CC0000D4629462046FFF7DCFF2E204FF0D84175
:101CD0000880FFF7C4FF0646304670BD012804D0D7
:101CE00002282DD003286DD14BE036214A06118001
:101CF000C8214FF0DA4211802A214FF0D8421180DA
:101D000000214FF0DA42118011801180EF21118003
:101D10002B214FF0D842118000214FF0DA42118080
:101D20001180012111803F2111804BE0000C014006
:101D3000002001400014014000180140FCBF0200D7
:101D400036214A06118068214FF0DA4211802A219B
:101D50004FF0D842118000214FF0DA4211801180FB
:101D6000012111803F2111802B214FF0D842118099
:101D700000214FF0DA42118011801180EF21118093
:101D800020E036214A06118028214FF0DA421180E6
:101D90002A214FF0D842118000214FF0DA42118001
:101DA0001180012111803F2111802B214FF0D84259
:101DB000118000214FF0DA42118011801180EF2153
:101DC000118000BF00BF2C214FF0D8421180704716
:101DD00070B505460E46144631462846FFF751FFBA
:101DE0002C204FF0D84108804FF0DA40048070BDBD
:101DF000F0B5059D00242A264FF0D8473E800612F4
:101E00004FF0DA473E80C6B23E808618761EC6F393
:101E10000F263E808618761EF6B23E802B264FF0A7
:101E2000D8473E800E124FF0DA473E80CEB23E8059
:101E3000CE18761EC6F30F263E80CE18761EF6B25A
:101E40003E802C264FF0D8473E8000BF03E04FF085
:101E5000DA463580641C02FB03F6A642F7D8F0BDD3
:101E600010B5FFF75CFDFFF7B1FDFFF7DFFDFFF7F2
:101E7000EFFD2C204FF0D841088010BD08B501219E
:101E80003C20FFF77DF910208DF8030003208DF82A
:101E900002004FF48070ADF8000069467048FEF70C
:101EA000B9FE4FF480716E48FEF75FFF0820ADF871
:101EB000000069466B48FEF7ADFE2020ADF800003B
:101EC00069466948FEF7A6FE0C20ADF80000694699
:101ED0006348FEF79FFE2020ADF800006946634886
:101EE000FEF798FE4FF47F40ADF8000004208DF817
:101EF000030003208DF8020069465B48FEF78AFE66
:101F0000082057491431086056491031086008BD4F
:101F100010B500F0B1F8FFF7B1FF10BD08B5012111
:101F20000420FFF72DF90120ADF8000004208DF802
:101F3000030003208DF8020069464948FEF76AFE57
:101F400008BD08B54FF4C060FEF7FCF906208DF817
:101F5000000000208DF8010001208DF802008DF8AE
:101F600003006846FEF7F3F908BD1CB500210846DA
:101F7000FEF764FF0120009000208DF804000C2083
:101F80008DF8050001208DF806006846FEF756FA28
:101F90000120FEF7A2FA1CBD10B5FFF7BFFFFFF747
:101FA000E4FFFFF7CEFF10BD38B5002400200090FD
:101FB0008021122000F066F908B9002038BD0B22FC
:101FC0000121684600F07EF908B90020F6E79DF887
:101FD0000000212814D100240DE0254A02EB440220
:101FE0005178234A12F8140000F04CF908B9002087
:101FF000E4E7601C84B21F4800788442EDDB01E016
:102000000020DBE70120D9E770B50320FFF766FE6B
:10201000002421E000261AE000BF002520201349FB
:10202000486111480830006800F47F4520200861AD
:1020300048610D4808300068C0F3072005432020A0
:10204000086100BF4FF0DA400580701C86B2B6F51B
:10205000A07FE1DB601C84B2F02CDBDB70BD0000F4
:102060000008014000140140000C01400010014034
:1020700040000020DA00002008B501211020FFF701
:102080007FF8C020ADF8000003208DF80200142076
:102090008DF803006946AA48FEF7BCFD08BD4FF461
:1020A000C87001E0411E88B20028FBD1704710B50E
:1020B0008021A348FEF759FE4021A148FEF755FEB6
:1020C000FFF7EDFF80219E48FEF735FE08B900209E
:1020D00010BD80219A48FEF74AFEFFF7E0FF8021FD
:1020E0009748FEF728FE08B10020F1E780219448C8
:1020F000FEF73DFEFFF7D3FF0120E9E710B54021D1
:102100008F48FEF734FEFFF7CAFF80218C48FEF7A8
:102110002EFEFFF7C4FF40218948FEF726FEFFF799
:10212000BEFF80218648FEF720FEFFF7B8FF10BDF6
:1021300010B540218248FEF71AFEFFF7B0FF80215C
:102140007F48FEF714FEFFF7AAFF40217C48FEF708
:102150000CFEFFF7A4FF40217948FEF708FEFFF7C9
:102160009EFF10BD10B540217548FEF700FEFFF739
:1021700096FF80217248FEF7F8FDFFF790FF40219F
:102180006F48FEF7F2FDFFF78AFF40216C48FEF72B
:10219000EEFDFFF784FF10BD10B540216848FEF743
:1021A000E6FDFFF77CFF80216548FEF7DEFDFFF7C7
:1021B00076FF40216248FEF7D8FDFFF770FF8021CF
:1021C0005F48FEF7B8FD28B140215D48FEF7CFFD1E
:1021D000002010BD40215A48FEF7C9FD0120F8E754
:1021E00070B5044608251BE040215548FEF7BFFDA9
:1021F000FFF755FF14F0800F04D080215048FEF700
:10220000B4FD03E080214E48FEF7B1FD6006040EE8
:10221000FFF745FF40214A48FEF7A7FDFFF73FFFC4
:102220002800A5F10101CDB2DED140214448FEF7DE
:102230009EFD70BD70B50825002480214048FEF742
:1022400094FD14E06006040E40213D48FEF78FFD2A
:10225000FFF725FF40213A48FEF787FDFFF71FFFF4
:1022600080213748FEF767FD08B144F001042800DB
:10227000A5F10101CDB2E5D140213148FEF777FD4E
:10228000204670BD70B504460D46FFF710FF08B933
:10229000002070BD4220FFF7A3FFFFF77DFF18B9B4
:1022A000FFF72CFF0020F4E7E0B2FFF799FFFFF7FC
:1022B00073FF2846FFF794FFFFF76EFFFFF71EFF3F
:1022C0000120E6E770B505460C461646FFF7EFFE1F
:1022D00008B9002070BD4220FFF782FFFFF75CFFC6
:1022E00018B9FFF70BFF0020F4E73046FFF778FF3F
:1022F000FFF752FFFFF702FFFFF7D9FE08B90020F2
:10230000E8E74320FFF76CFFFFF746FF18B9FFF738
:10231000F5FE0020DEE70CE0FFF78CFF2870012CB3
:1023200002D1FFF71FFF01E0FFF702FF6D1C601EE7
:1023300084B2002CF0D1FFF7E1FE0120CAE70000D3
:10234000001001402DE9F04106460F461446B9B28F
:10235000B0B2FFF7B3FC054605F4784000122070D8
:1023600005F4FC60C010607005F01F00A070BDE8AF
:10237000F0812DE9F04F8046894698F8005098F892
:10238000010098F80210854205DA884201DA8A468F
:1023900006E0824604E08D4201DA8A4600E0AA4661
:1023A0005246854205DD884201DD8A4606E08246C6
:1023B00004E08D4201DD8A4600E0AA46D446A2EB45
:1023C0000C0402EB0C0BCBEB0B1B4FEA0B1B4FF07F
:1023D000FF0E9BFBFEFA0AEBDA7B4FEA6B076245C6
:1023E00002D1002300264AE0AA4215D1884208DB28
:1023F000A0EB010A0AEB8A0A4FEACA0A9AFBF4F335
:1024000023E0A0EB010A0AEB8A0A4FEACA0A9AFB08
:10241000F4FA0AF1F00318E082420AD1A1EB050AAE
:102420000AEB8A0A4FEACA0A9AFBF4FA0AF1500345
:102430000BE08A4209D1A5EB000A0AEB8A0A4FEAAF
:10244000CA0A9AFBF4FA0AF1A0030FB9002616E0B3
:10245000782F08DCC4EB041A4FEA0A1A02EB0C0BC3
:102460009AFBFBF60BE0C4EB041A4FEA0A1A02EBE4
:102470000C0B40F2FF1EAEEB0B0B9AFBFBF6F02BA6
:1024800002DD4FF0F00A05E0002B02DA4FF0000AFF
:1024900000E09A4689F800A0F02E02DD4FF0F00A25
:1024A00005E0002E02DA4FF0000A00E0B24689F89B
:1024B00001A0F02F02DD4FF0F00A05E0002F02DA54
:1024C0004FF0000A00E0BA4689F802A0BDE8F08F9C
:1024D000024610780B78984215DD10784B789842B8
:1024E00011DA50788B7898420DDD5078CB7898428D
:1024F00009DA90780B79984205DD90784B7998420B
:1025000001DA012070470020FCE72DE9FF4F83B07E
:1025100092461F464FF0000B0321DAF80800B0FB8B
:10252000F1F4DAF80C00B0FBF1F5D7F8088041E0DF
:10253000D7F800903AE04FF0000B002622E0A642C8
:1025400007D208EB550109EB060002AAFFF7FAFED5
:1025500007E0321B02EB080109EB540002AAFFF767
:10256000F1FE01A902A8FFF704FF514601A8FFF7F9
:10257000AFFF08B90BF1010B6019BBEBD00F00D90D
:1025800003E0761C6019B042D9D800BF6019B04290
:102590000BD109EB54010398016008EB5501049835
:1025A0000160012007B0BDE8F08FA144786848457C
:1025B000C1D8A844F8684045BAD80020F2E72DE910
:1025C000FF4F83B082468B461F460020029005983D
:1025D00080680321B0FBF1F40598C068B0FBF1F509
:1025E000D7F808806DE0D7F8009065E000200290F1
:1025F000002624E0A64207D208EB550109EB0600AD
:1026000001AAFFF79FFE07E0321B02EB080109EB6E
:10261000540001AAFFF796FE694601A8FFF7A9FE3C
:1026200068460599FFF754FF10B90298401C0290C4
:1026300061190298B0EBD10F00D903E0761C601944
:10264000B042D7D800BF6019B04234D109EB540072
:10265000CAF8000008EB5500CBF80000EC48006811
:10266000EB498968A0EB5100DAF8001088421DD2CE
:10267000E7484068E649C968A0EB5100DBF8001064
:10268000884213D2E2480068E149896800EB5100B2
:10269000DAF80010884209D9DD484068DC49C96889
:1026A00000EB5100DBF80010884203D8012007B08E
:1026B000BDE8F08F03E0A1447868484596D800BF94
:1026C000A844F86840458ED80020F0E72DE9FF4F78
:1026D00083B015461F460026039C16E002AA20463A
:1026E0000499FFF72FFE01A902A8FFF742FE294631
:1026F00001A8FFF7EDFE00B9761C2969A868084417
:10270000B6EB501F00D902E0641E002CE6D100BFDA
:10271000A0460026039C16E002AA20460499FFF773
:1027200011FE01A902A8FFF724FE294601A8FFF720
:10273000CFFE00B9761C2969A8680844B6EB501F83
:1027400000D903E0641CB4F5A07FE5D300BFA14627
:102750000026049C16E002AA21460398FFF7F2FD2A
:1027600001A902A8FFF705FE294601A8FFF7B0FE60
:1027700000B9761C6969E8680844B6EB501F00D9B7
:1027800002E0641E002CE6D100BFA2460026049C95
:1027900016E002AA21460398FFF7D4FD01A902A87A
:1027A000FFF7E7FD294601A8FFF792FE00B9761C66
:1027B0006969E8680844B6EB501F00D902E0641C60
:1027C000F02CE6D300BFA346002608EB0900400822
:1027D00038600AEB0B0040087860A9EB0800B8608D
:1027E000ABEB0A00F860A9EB0800A968884212D98F
:1027F000ABEB0A00E96888420DD9A9EB080029690A
:10280000884208D2ABEB0A006969884203D20120F2
:1028100007B0BDE8F08F0020FAE77FB506460C460A
:102820007C48006800BB7C4B32467C497C48FFF703
:102830006CFE18B101207749086015E00020764948
:1028400008604FF4A070486000208860F020C860E5
:102850000B46324671497248FFF757FE20B10020FF
:102860006C49086004B070BD6D48006800906B480A
:1028700000680190002506E06B463246DDE9000164
:10288000FFF724FF6D1C082DF6D36B463246DDE9B9
:102890000001FFF71BFF50B36149009808605F49D2
:1028A0000198086000982060019860600298A0601C
:1028B0000398E06001205749086002990098A0EB56
:1028C0005100554908600299009800EB51005249A7
:1028D000486003990198A0EB51004F498860039923
:1028E000019800EB51004C49C8600120BAE7002074
:1028F0004849086000BFB5E77FB506460C46494821
:10290000006800BB484B324648494948FFF757FE2C
:1029100018B101204349086015E0002042490860D1
:102920004FF4A070486000208860F020C8600B461B
:1029300032463E493E48FFF742FE20B10020394969
:10294000086004B070BD3A480068009037480068DD
:102950000190002506E06B463246DDE90001FFF7F5
:10296000B5FE6D1C082DF6D3A1682068A0EB5100C0
:102970000099884214D2E1686068A0EB5100019987
:1029800088420DD2A168206800EB5100009988426E
:1029900006D9E168606800EB51000199884235D89A
:1029A0006B463246DDE90001FFF790FE50B3204947
:1029B000009808601D4901980860009820600198FF
:1029C00060600298A0600398E060012015490860EB
:1029D00002990098A0EB51001349086002990098F1
:1029E00000EB51001049486003990198A0EB510099
:1029F0000D4988600399019800EB51000A49C860AD
:102A000001209EE70020074908609AE700BF98E789
:102A100014010020E4000020E8000020E000002075
:102A2000DC0000200001002004010020FC00002048
:102A3000F800002008B501218820FEF7A1FB102036
:102A40008DF8030003208DF802000120ADF800008E
:102A500069460C48FEF7DEF84FF4C070ADF8000090
:102A600069460948FEF7D6F801210648FEF77DF9C8
:102A70004FF4C0710448FEF778F908BD10B5FFF7B0
:102A8000D9FF10BD000C0140001C0140064C074D51
:102A900006E0E06840F0010394E80700984710342E
:102AA000AC42F6D3FDF748FBD02A0008F02A000814
:102AB00002E008C8121F08C1002AFAD17047704707
:102AC000002001E001C1121F002AFBD17047000065
:102AD000F02A00080000002014010000B02A0008BD
:102AE000042C00081401002014040000C02A00086F
:102AF00000A24A04000000000000000001020304DC
:102B00000607080900000000010203040102030493
:102B10000607080902040608325014FA14C8000017
:102B2000280000002800000040010000F000000024
:102B300011001246173F185019031A783200295015
:102B40002C782A00427F4D0963E064FF652066000F
:102B5000670013F00D810FC5142122FF23012434D7
:102B6000253C26A12B006BAA13FF695D900A9101F9
:102B700092019301945F95539611971A983D995A33
:102B80009A1E9B009C25A765A8659E81A6067E0CC3
:102B90007F16802A814E8261836F847B8586868E34
:102BA000879788A489AF8AC58BD78CE88D20A980A8
:102BB000AA80ACFF3300229923034A004913470837
:102BC0004B144C1746050CD00EF54D0000000000CC
:102BD00000000000000000000000000040010000B4
:102BE00000000000F00000000000000000000000F5
:102BF0000000000000000000400100000000000094
:042C0000F0000000E0
:0400000508000131BD
:00000001FF
