:03000000020235C4
:0C023500787FE4F6D8FD75817002027C31
:0C0650000A347878000000000000000070
:10000300D3EF9400EE940040147D6E7C00ED1D70E0
:0D001300011CED4C70F7EF1F70E61E80E33E
:0100200022BD
:1005EE00758920758DFD758BFDD28EC29FD29ED2E0
:0605FE009CD2ACD2AF223A
:0A0676008F99753F01E53F70FC22EB
:1006190012019CFF600C120676740129F9E43AFA7A
:0306290080EE223E
:10060400EFC3940950047430800274372FFF74349C
:050614002DF8A60722ED
:1003AE0012054F12068012063E7F4112048212057C
:1003BE00EE7B007A0079407F521204218F3EE53E9B
:1003CE0070EF7B007A0079401202C18F3EE53E70DD
:1003DE00E0E53E70DCC290FBFA74402BF8E654F078
:1003EE00C4540FFFAD03AC021206040BBB00010A8E
:1003FE00EB64024A70E375362EE4F537FB7A00792A
:10040E003412061953A0F77F2C7E0112000343A06D
:03041E0008809EB5
:1005CA00758DF1758B9AC2ABD28EEF1FAC06700196
:1005DA001E4C600D308FFDC28F758DF1758B9A8020
:0405EA00E9C28E22B2
:0300230002066A68
:0C066A00309803C29832C299753F0032EC
:080421008F0A8B0B8A0C890D78
:1004290012062C7D077F0D1205147D037F14120619
:100439005D850A10752701752800752900752A1030
:10044900752B00752C00752D0E7A00791012002677
:10045900EF7023E50F6410450E701BAB0BAA0CA9B6
:100469000DE5101201E2AB0BAA0CA90D900001E5F4
:08047900111201F480027FFE64
:010481002258
:0602C1008B0A8A0B890C78
:1002C700E4F50E12062CE4FD7F0D1205147D807FE8
:1002D7000E120630751193751220752702752800C6
:1002E700752900752A11752B00752C00752D0F7A4D
:1002F7000079111200268F0DE50D702BFF74112F59
:10030700F8E6AB0AAA0BA90C8F827583001201F4D9
:1003170074112FF8E6620E0FBF04E274112FF8E68E
:10032700650E6003750DFE7D807F0E12065DAF0DB5
:0103370022A3
:10058D00755750E4F558F56D756E00756F59FB7A1A
:10059D000079577D021203387527047528007529D7
:1005AD0000752A57752B00752C00752D557B007A1B
:0C05BD000079577F0C12002A8F547F0039
:0105C900220F
:080338008B698A6A896B8D6CE8
:100340007D047F051206301205107D807F0A12069B
:100350005DE4F570E570C3956C5019AB69AA6AA9A4
:100360006B8570827583001201B5FD7F091205143B
:10037000057080E07D037F011205147570FF7F0515
:100380001204D31570E5706004EF30E2F17F2212A1
:1003900004D3AB6DAA6EA96FEF1201E27F211204A4
:0E03A000D3AB6DAA6EA96F900001EF0201F4BD
:10054F00D29100C29100D291007D0F7F011205144C
:10055F00007D3D7F111205147D1E7F2D120514E4C1
:10056F00FD7F2C1205147D8D7F2A1205147D3E7F91
:0E057F002B1205147D407F151205147F0022FB
:10048200EF6441704012062C7D3D7F111205147DF0
:10049200867F171205147D7F7F261205147D1E7F2D
:1004A2002D120514E4FD7F2C1205147D8D7F2A1276
:1004B20005147D3E7F2B1205147F017E001205CAB2
:0B04C20012063E80037FFF227F002215
:0604CD00AC07AB05E4FEE4
:1004D300E4FEC294C295EF25E0547E4480FF7D087C
:1004E300EF30E703D38001C39293D294EF25E0FF6B
:1004F300C294DDEC7D08D294EE25E0FEA292E433B3
:0C0503004206C294DDF0D295D294AF06FF
:01050F0022C9
:04051000E4FD7F0186
:10051400C294C295EF25E0547EFF7E08EF30E703D6
:10052400D38001C39293D294EF25E0FFC294DEEC12
:100534007E08ED30E703D38001C39293D294ED2576
:0A054400E0FDC294DEECD295D294E3
:01054E00228A
:0D065D001204CDAE07AF04EB4EFD020514F4
:04062C007D087F08BE
:0E0630001204CDAE07AF04EBF45EFD0205141C
:040026007B007F0CD0
:08002A008F238B248A2589260F
:10003200752EFEE4F52FF530E52324F4600C24FE42
:10004200700E752F127530108006752F777530304F
:10005200E52F4480FD7F021205147D807F04120685
:10006200301205107D807F0A12065DE4F532F53309
:10007200C3E5339527E5329400501FAB24AA25A986
:10008200268533828532831201B5FD7F091205145C
:100092000533E53370DA053280D6AD237F011205D0
:1000A20014E523B40C077D807F0D12065D753207BF
:1000B2007533D07F041204D38F31E53315337002C8
:1000C2001532E53345326009E53120E004553060F0
:1000D200E27D807F0D120630E53345327003020166
:1000E2008F7F061204D3EF541B600302018CF52E9E
:1000F200E531552F30E003752EFFE523640C6003D4
:1001020002018F7F0A1204D38F317F0C1204D3EFC6
:100112005407FD6021E53124FFFFE434FFFEEF7850
:1001220003C333CE33CED8F97C002DFFEC3EAB2B8C
:10013200AA2CA92D800FE53175F008A4FFAB2BAADC
:100142002CA92DE5F08FF0120216E53170037531FE
:1001520001E531D394124003753112E4F532F533DF
:10016200C3E5339531E532940050227F091204D35E
:10017200AB28AA29A92A853382853283EF1201F49A
:100182000533E53370DA053280D6752EFE7D807F29
:090192000C12065D120510AF2EDF
:01019B002241
:10063E007F141204D3EF540370077D037F14120648
:01064E005D4E
:01064F002288
:070680007D037F1402063028
:100241000203AEE493A3F8E493A34003F68001F222
:1002510008DFF48029E493A3F85407240CC8C333BE
:10026100C4540F4420C8834004F456800146F6DF8D
:10027100E4800B0102040810204080900650E47EC7
:10028100019360BCA3FF543F30E509541FFEE49382
:10029100A360010ECF54C025E060A840B8E493A349
:1002A100FAE493A3F8E493A3C8C582C8CAC583CA74
:1002B100F0A3C8C582C8CAC583CADFE9DEE780BE2C
:01065C00009D
:10019C00BB010689828A83E0225002E722BBFE0261
:0901AC00E32289828A83E4932294
:1001B500BB010CE58229F582E5833AF583E02250FF
:1001C50006E92582F8E622BBFE06E92582F8E22249
:0D01D500E58229F582E5833AF583E4932263
:1001E200BB010689828A83F0225002F722BBFE01FC
:0201F200F322F6
:1001F400F8BB010DE58229F582E5833AF583E8F041
:10020400225006E92582C8F622BBFE05E92582C8EC
:02021400F222D4
:10021600BB010A89828A83F0E5F0A3F0225006F733
:0F02260009A7F01922BBFE06F3E5F009F3192230
:00000001FF
